:100FA5004D4943524F4152454E4100535368616884
:100FB5007279696172004E75766F746F6E20382D87
:0F0FC500626974207543004E3736453030330073
:100A0100E4F52178227C00FD7BFF7A0F79A5FE7F3A
:100A11000B1208D0782D7C007D007BFF7A0F79B016
:100A21007E007F0B1208D078387C007D007BFF7A36
:100A31000F79BB7E007F111208D078497C007D00C0
:100A41007BFF7A0F79CC7E007F081208D0120D2B24
:100A5100121166E4FD7F031211507B007A007922A6
:100A61001210547D017F031211507B007A00792D01
:100A71001210547F1E7E007D007C00120D79121130
:100A810066E4F521E4FDAF2112115074382521F8F7
:100A9100E6FF12113A7F5A7E007D007C00120E5E45
:100AA1000521E521C3941040DB7F147E007D007C8D
:100AB10000120D79E4F521E5212404FF7D011211D5
:100AC1005074492521F8E6FF12113A7F5A7E007DC4
:100AD100007C00120E5E0521E521C3940740D87FFA
:100AE1001E7E007D007C00120D79E4F52112116655
:100AF100E4FD7F031211507B007A00792212105419
:100B0100AF21120C8E05217F047E007D007C001236
:040B11000D7980ECEE
:020C8E008F5184
:100C9000E4F552E55175F064842430F5527D017F0E
:100CA00006121150AF5212113AE55175F00A8475CF
:100CB000F00A84E5F02430F5527D017F07121150CF
:100CC000AF5212113AE55175F00A84E5F02430F57F
:0D0CD000527D017F08121150AF5202113AFF
:100F370053B1BF53B2BF53B17F53B27F759850437C
:100F47008920438780438E1053C4DFAB07AA06A9C5
:100F570005A8047F407E427D0F7C0012094BEF04F9
:090F6700F404F58DD28ED299221A
:100B15008F0B8E0A8D098C0853B1BF53B2BF53B1E9
:100B25007F53B27F75985043878053C4F843C420E0
:100B3500AB0BAA0AA909A8087F407E427D0F7C005D
:100B450012094BC374FF9FFF74FF9EFEE49DFDE4F5
:100B55009CFC78081209EE8FC6AB0BAA0AA909A856
:100B6500087F407E427D0F7C0012094BC374FF9FB6
:090B7500FF8FC543C408D2992288
:071182003098FDAF99C298FF
:011189002243
:08118A00C2998F993099FD22F2
:100B7E008F0F8E0E8D0D8C0C53B1FB53B2FB53B3F6
:100B8E00BF53B4BF75F85075C40853C4DFAB0FAA7A
:100B9E000EA90DA80C7F407E427D0F7C0012094BE2
:100BAE00C374FF9FFF74FF9EFEE49DFDE49CFC78E2
:100BBE00081209EE8FC6AB0FAA0EA90DA80C7F4026
:100BCE007E427D0F7C0012094BC374FF9FFF8FC5C1
:040BDE0043C40822E2
:0711920030F8FDAF9AC2F82E
:011199002233
:08119A00C2F98F9A30F9FD2221
:100E13008F548E538D528C51538EF7438901D28C4C
:100E2300E4FFFEFDFCAB54AA53A952A851C3120917
:100E3300DD6025758A7E758CFF308DFDC28DE5548E
:100E430024FFF554E55334FFF553E55234FFF552CF
:0B0E5300E55134FFF55180C8C28C222D
:100E5E008F598E588D578C56538EF7438901D28CED
:100E6E00E4FFFEFDFCAB59AA58A957A856C31209B8
:100E7E00DD6025758ACA758CFA308DFDC28DE559F7
:100E8E0024FFF559E55834FFF558E55734FFF5576B
:0B0E9E00E55634FFF55680C8C28C22D8
:100EA9008F138E128D118C10538EEF438910D28EB1
:100EB900E4FFFEFDFCAB13AA12A911A810C3120985
:100EC900DD6025758BEA758DCB308FFDC28FE513FB
:100ED90024FFF513E51234FFF512E51134FFF5117E
:0B0EE900E51034FFF51080C8C28E2217
:100CDD008F178E168D158C1453C9BF53C9DF43C999
:100CED0010D2CAE4FFFEFDFCAB17AA16A915A81475
:100CFD00C31209DD602575CC3075CDF830CFFDC23E
:100D0D00CFE51724FFF517E51634FFF516E5153475
:0E0D1D00FFF515E51434FFF51480C8C2CA2294
:100D79008F548E538D528C5175C40743C408E4FFB8
:100D8900FEFDFCAB54AA53A952A851C31209DD6058
:100D99002875C52C75C6CFE5C430E4FB53C4EFE50F
:100DA9005424FFF554E55334FFF553E55234FFF568
:0D0DB90052E55134FFF55180C553C4F722B7
:100DC6008F5C8E5B8D5A8C5975C40743C408E4FF4B
:100DD600FEFDFCAB5CAA5BA95AA859C31209DD60EB
:100DE6002875C5D875C6FFE5C430E4FB53C4EFE5E6
:100DF6005C24FFF55CE55B34FFF55BE55A34FFF5F3
:0D0E06005AE55934FFF55980C553C4F72251
:100D2B001211747F0A7E007D007C00120E5E751C12
:100D3B0001751B04AF1B1210EA7F0A7E007D007C3D
:100D4B0000120E5EE4FD7F33120F70E4FD7F321252
:100D5B000F70E4FD7F28120F70E4FD7F0C120F70F3
:0E0D6B00E4FD7F01120F70E4FD7F06020F70A1
:10107B00431B04AF1B1210EA7F017E007D007C0036
:10108B00120E5E531BF9AF1B1210EA7F017E007D1F
:06109B00007C00020E5E65
:100F70008F54ED146008047008531BF48003431B66
:100F800001E51C6008147008431B088003531BF71D
:100F9000AF1B1210EAAF5412102D7F017E007D00AE
:050FA0007C00020E5E62
:02102D008F55DD
:10102F00E55554F0531B0F421BAF1B1210EA121061
:10103F007BE555540FC454F0531B0F421BAF1B12CB
:05104F0010EA02107B15
:101054008B518A528953AB510553E553AA527002FE
:10106400055214F91208F6FF12113AAB51AA52A90B
:07107400531208F670E022A0
:10113A00C3EF648094A0400DD3EF648094FF500500
:06114A007D01120F70226E
:0E116600E4FD7F01120F70E4FD7F02020F70A6
:101150008F53ED7006E55344808004E55344C0FF8F
:06116000E4FD120F7022F5
:0E1174001211067F147E007D007C00020E5ECC
:10112200E4F51F1210A17F4F120C3AE4FF120BE2FA
:071132008F1F1210C6AF1F52
:011139002293
:1010EA008F561210A17F4E120C3A7FFF120FD4AF07
:0C10FA0056120C3A7FFF120FD40210C6F1
:1011060053B1F743B20853B1EF43B2107F017E00EB
:0C1116007D007C00120E13D283D28422D4
:1010A10053B1F743B208D283D2847F047E007D001E
:1010B1007C00120DC6C2837F047E007D007C00127D
:0510C1000DC6C28422EF
:1010C60053B1F743B208C283C2847F047E007D0019
:1010D6007C00120DC6D283D2847F047E007D007C04
:0410E60000020DC631
:020BE2008F186A
:100BE400751908E4F51A43B10853B2F7C2847F02B9
:100BF4007E007D007C00120DC6D2847F027E007DC3
:100C0400007C00120DC6E51A25E0F51A30830205B2
:100C14001A7F017E007D007C00120DC61519E519AE
:100C2400D3940050C7E5180470047FFF8002E4FFEA
:050C3400120FD4AF1AFD
:010C39002298
:020C3A008F57D2
:100C3C0075580853B1F743B208C284E5575480C4C1
:100C4C0013131354016004D2838002C283E5572529
:100C5C00E0F5577F027E007D007C00120DC6D28429
:100C6C007F027E007D007C00120DC6C2847F027E56
:100C7C00007D007C00120DC61558E558D394005029
:010C8C00BAAD
:010C8D002244
:100FD400C28453B1F743B208EF047004C2838002A1
:100FE400D2837F027E007D007C00120DC6D2847FF6
:0D0FF400027E007D007C00120DC6C284222A
:100EF400E4F51DF51E43B10853B2F7D2837F01FE1A
:100F0400FDFC120DC6D2847F017E007D007C0012A0
:100F14000DC6308319051EE51E7002051DD394E825
:100F2400E51D6480948340EA1210C67F0122C284C6
:020F34007F003C
:010F36002298
:03000000021001EA
:1010010075C7AA75C75575FD5A75C7AA75C75575B0
:10101100FDA5787FE4F6D8FD9000007FFF7E03E414
:0C102100F0A3DFFCDEFA75815C020A011E
:10080000E709F608DFFA8046E709F208DFFA803EDA
:1008100088828C83E709F0A3DFFA8032E309F608C7
:10082000DFFA8078E309F208DFFA807088828C832F
:10083000E309F0A3DFFA806489828A83E0A3F608E3
:10084000DFFA805889828A83E0A3F208DFFA804CBD
:1008500080D280FA80C680D4806980F28033801094
:1008600080A680EA809A80A880DA80E280CA8033FD
:1008700089828A83ECFAE493A3C8C582C8CCC58375
:10088000CCF0A3C8C582C8CCC583CCDFE9DEE78045
:100890000D89828A83E493A3F608DFF9ECFAA9F0C4
:1008A000EDFB2289828A83ECFAE0A3C8C582C8CC1A
:1008B000C583CCF0A3C8C582C8CCC583CCDFEADE33
:1008C000E880DB89828A83E493A3F208DFF980CC95
:1008D00088F0EF60010E4E60C388F0ED2402B4048E
:1008E0000050B9F582EB2402B4040050AF23234535
:0608F00082239008507302
:1008F600BB010689828A83E0225002E722BBFE0200
:09090600E32289828A83E4932232
:10090F0075F008758200EF2FFFEE33FECD33CDCC9F
:10091F0033CCC58233C5829BED9AEC99E582984022
:10092F000CF582EE9BFEED9AFDEC99FC0FD5F0D6FF
:10093F00E4CEFBE4CDFAE4CCF9A88222B800C1B929
:10094F000059BA002DEC8BF084CFCECDFCE5F0CB67
:10095F00F97818EF2FFFEE33FEED33FDEC33FCEBA0
:10096F0033FB10D703994004EB99FB0FD8E5E4F95B
:10097F00FA227818EF2FFFEE33FEED33FDEC33FC48
:10098F00C933C910D7059BE99A4007EC9BFCE99A3C
:10099F00F90FD8E0E4C9FAE4CCFB2275F010EF2F81
:1009AF00FFEE33FEED33FDCC33CCC833C810D70781
:1009BF009BEC9AE899400AED9BFDEC9AFCE899F8BC
:0E09CF000FD5F0DAE4CDFBE4CCFAE4C8F9224F
:1009DD00EB9FF5F0EA9E42F0E99D42F0E89C45F070
:0109ED0022E7
:1009EE00E8600FECC313FCED13FDEE13FEEF13FFE7
:0309FE00D8F1220B
:00000001FF
