:1012B60050616D67652F636D3A0050756C73652FCD
:0412C60075733A0002
:04132500022D000095
:030063000211A5E2
:1011A500C0E0C0D075D000C007E59230E00353928F
:1011B500FEE59230E1165392FDAFE7752D008F2EB7
:1011C500E52E752E00F52DAFE6EF422ED007D0D0D7
:0311D500D0E03235
:100D2700E4F508F509120E6C1212DCE4FDFF12124D
:100D37008B7BFF7A1279B61212007D01E4FF121243
:100D47008B7BFF7A1279C01212001211D8D2917FD1
:100D5700017E007D007C00120FCBC291AC2DAD2E21
:100D6700E41208A5E4FBFA7968784212080312082E
:100D7700DE8E088F09AB09AA08E4FD7F0B120B1C56
:100D8700AB2EAA2D7D017F0B120B1C7F847E037D6A
:080D9700007C0012106380B51E
:1011D8007F021210F9E4FF120BCFE4751110F5101D
:1011E800F50FF50E7F10FEFDFC120ECF1212EA125B
:0811F80012CA121247D2AF2205
:100BCF00EF24FE6014047060A2AF9200C2AF75C72D
:100BDF00AA75C7554396048076A2AF9200C2AF752F
:100BEF00C7AA75C755439780A20092AFA2AF9200D4
:100BFF00C2AF75C7AA75C755439740A20092AFE51C
:100C0F009630E3FBA2AF9200C2AF75C7AA75C75566
:100C1F005396FBA20092AFA2AF9200C2AF75C7AAC4
:100C2F0075C755439602803AA2AF9200C2AF75C7FF
:100C3F00AA75C755439720A20092AFE59630E5FB02
:100C4F00A2AF9200C2AF75C7AA75C7555396FBA244
:100C5F000092AFA2AF9200C2AF75C7AA75C7555326
:0C0C6F0096FDA20092AFE59720E0FB226A
:1010F900EF7011A2AF9200C2AF75C7AA75C7555359
:1011090097DF8022A2AF9200C2AF75C7AA75C755F3
:1011190053977FA20092AFA2AF9200C2AF75C7AA40
:0B11290075C7555397BFA20092AF227C
:100ECF008F0D8E0C8D0B8C0AC004C005C006C00799
:100EDF00E47F02FEFDFCAB11AA10A90FA80E1209A8
:100EEF00CDA804A905AA06AB07D007D006D005D018
:100EFF0004120A588F0D8E0C8D0B8C0AE4FFFEFD29
:100F0F00FCAB0DAA0CA90BA80AC3120AF84011E4F6
:100F1F007FFFFEFDFCA80AD3120AF85003850D953A
:010F2F00229F
:0D12EA0053B3FD43B40243B30453B4FB22DD
:10124700E4FFFE12131EE4FFFE12131743C9804387
:08125700C90143C920D2CA22DB
:1012CA00759230759301759430E4F5F1F5F2439B0C
:0212DA000422EC
:07131700EFF5CCEEF5CD224D
:07131E00EFF5CAEEF5CB224A
:100B1C008F0A8D0B8A0C8B0D12128BAE0CAF0D7CC9
:100B2C00277D10120978EF2430FF121275E50A04A4
:100B3C00FFAD0B12128BAE0CAF0D7C277D10120982
:100B4C00787E037FE8CFCDCFCECCCE120978EF24C0
:100B5C0030FF121275E50A2402FFAD0B12128BAE98
:100B6C000CAF0D7C037DE81209787E007F64CFCD3D
:100B7C00CFCECCCE120978EF2430FF121275E50AD5
:100B8C002403FFAD0B12128BAE0CAF0D7C007D64F9
:100B9C001209787E007F0ACFCDCFCECCCE12097849
:100BAC00EF2430FF121275E50A2404FFAD0B12126C
:100BBC008BAE0CAF0D7C007D0A120978ED2430FF52
:030BCC000212759D
:1011340053B1BF53B2BF53B17F53B27F759850437D
:101144008920438780438E1053C4DFAB07AA06A9C6
:1011540005A8047F407E427D0F7C00120A58EF04EC
:09116400F404F58DD28ED299221B
:100D9F008F178E168D158C1453B1BF53B2BF53B12D
:100DAF007F53B27F75985043878053C4F843C42054
:100DBF00AB17AA16A915A8147F407E427D0F7C00A1
:100DCF00120A58C374FF9FFF74FF9EFEE49DFDE45B
:100DDF009CFC7808120B098FC6AB17AA16A915A889
:100DEF00147F407E427D0F7C00120A58C374FF9F10
:090DFF00FF8FC543C408D29922FC
:0712F7003098FDAF99C29889
:0112FE0022CD
:0812FF00C2998F993099FD227C
:100E08008F1B8E1A8D198C1853B1FB53B2FB53B339
:100E1800BF53B4BF75F85075C40853C4DFAB1BAAE1
:100E28001AA919A8187F407E427D0F7C00120A5823
:100E3800C374FF9FFF74FF9EFEE49DFDE49CFC7855
:100E480008120B098FC6AB1BAA1AA919A8187F404C
:100E58007E427D0F7C00120A58C374FF9FFF8FC526
:040E680043C4082255
:0713070030F8FDAF9AC2F8B7
:01130E0022BC
:08130F00C2F98F9A30F9FD22AA
:101018008F1F8E1E8D1D8C1C538EF7438901D28C19
:10102800E4FFFEFDFCAB1FAA1EA91DA81CC3120AE3
:10103800F86025758A7E758CFF308DFDC28DE51FA1
:1010480024FFF51FE51E34FFF51EE51D34FFF51DD1
:0B105800E51C34FFF51C80C8C28C2290
:101063008F138E128D118C10538EF7438901D28CFE
:10107300E4FFFEFDFCAB13AA12A911A810C3120AC8
:10108300F86025758ACA758CFA308DFDC28DE5131B
:1010930024FFF513E51234FFF512E51134FFF511C2
:0B10A300E51034FFF51080C8C28C225D
:1010AE008F248E238D228C21538EEF438910D28E66
:1010BE00E4FFFEFDFCAB24AA23A922A821C3120A39
:1010CE00F86025758BEA758DCB308FFDC28FE524C8
:1010DE0024FFF524E52334FFF523E52234FFF52222
:0B10EE00E52134FFF52180C8C28E22EE
:100F30008F288E278D268C2553C9BF53C9DF43C9FF
:100F400010D2CAE4FFFEFDFCAB28AA27A926A825DB
:100F5000C3120AF8602575CC3075CDF830CFFDC2CC
:100F6000CFE52824FFF528E52734FFF527E52634CB
:0E0F7000FFF526E52534FFF52580C8C2CA220C
:100F7E008F2C8E2B8D2A8C2975C40743C408E4FF51
:100F8E00FEFDFCAB2CAA2BA92AA829C3120AF860D5
:100F9E002875C52C75C6CFE5C430E4FB53C4EFE508
:100FAE002C24FFF52CE52B34FFF52BE52A34FFF529
:0D0FBE002AE52934FFF52980C553C4F72228
:100FCB008F0D8E0C8D0B8C0A75C40743C408E4FF80
:100FDB00FEFDFCAB0DAA0CA90BA80AC3120AF86004
:100FEB002875C5D875C6FFE5C430E4FB53C4EFE5DF
:100FFB000D24FFF50DE50C34FFF50CE50B34FFF577
:0D100B000BE50A34FFF50A80C553C4F72237
:08116D0054F0FF532F0F422F35
:101175007E08AD2FC282EED394004021ED5480C489
:101185001313135401FF530701EF7004C28080024B
:0F119500D280D281ED25E0FD1EC28180D9D282A9
:0111A4002228
:100E6C007F0A7E007D007C0012106353B1FE43B2FA
:100E7C000153B1FD43B20253B1FB43B2047F0A7E6E
:100E8C00007D007C00121063752F081211757F0A0B
:100E9C007E007D007C00121063E4FD7F3312125F34
:100EAC00E4FD7F3212125FE4FD7F2812125FE4FD35
:100EBC007F0C12125FE4FD7F0112125FE4FD7F06CE
:030ECC0002125FB0
:10122500432F081211757F027E007D007C0012108D
:1012350063532FF71211757F027E007D007C00023B
:02124500106334
:10125F00AC07ED147005432F048003532FFB1211BD
:06126F0075AF040212A19C
:0212A1008F0FAD
:1012A300E50F12116D121225E50F540FC412116DC3
:0312B300021225FF
:101200008B0A8A0B890CAB0AAA0BA90C12095F6026
:1012100013050CE50C7002050B14F912095FFF129F
:05122000127580E222BE
:10127500C3EF648094A0400DD3EF648094FF5005C4
:061285007D0112125F2240
:0E12DC00E4FD7F0112125FE4FD7F0202125F4B
:10128B008F0EED7006E50E44808004E50E44C0FF22
:06129B00E4FD12125F22C7
:03000000020C7B74
:100C7B0075C7AA75C75575FD5A75C7AA75C755753A
:100C8B00FDA5787FE4F6D8FD9000007FFF7E03E49E
:0C0C9B00F0A3DFFCDEFA75812F020CE2F2
:10080000020954EC5D046005E85904700302094ACA
:10081000120915580460F6EC4860F2EC7004FDFE15
:10082000FF22C860DB2481C85009C39860025006CB
:100830000209519850CAF582E9294B4A7005AB82EA
:1008400002094075F0007C1A7880C3EF9BEE9AEDA8
:1008500099400DC3EF9BFFEE9AFEED99FDE842F043
:10086000DC23ACF0D0E0FFD0E0FED0E0FDAB822096
:10087000E7101BEB60BAEC2CFCEF33FFEE33FEED20
:1008800033FD02092CE803F830E705C0F075F000ED
:10089000EF2FFFEE33FEED33FD40B830E7C280AA04
:1008A00075F020800E75F010800575F0087D007ED3
:1008B000007F003392D530D503120AEAEC334010A2
:1008C000EF33FFEE33FEED33FDEC33FCD5F0ED22DC
:0E08D000E5F0247EA2D513CC92E7CDCEFF2218
:1008DE00EDD2E7CD33EC3392D524814006E4FFFE12
:1008EE00FDFC22FCE4CFCECDCC24E0501174FF8071
:1008FE00EDC3CC13CCCD13CDCE13CECF13CF04700E
:07090E00F030D5DE020AEA19
:10091500E9D2E7C933E833F892D5EDD2E7CD33EC28
:0709250033FC5002B2D522A1
:10092C00EC30E7100FBF000C0EBE00080DBD00042C
:10093C000BEB6014A2D5EB13FCED92E7FD2274FFD8
:10094C00FCFDFEFF22E480F8A2D574FF13FC7D8031
:03095C00E480EF45
:100CA700020D27E493A3F8E493A34003F68001F22F
:100CB70008DFF48029E493A3F85407240CC8C3334E
:100CC700C4540F4420C8834004F456800146F6DF1D
:100CD700E4800B0102040810204080901325E47E75
:100CE700019360BCA3FF543F30E509541FFEE49312
:100CF700A360010ECF54C025E060A840B8E493A3D9
:100D0700FAE493A3F8E493A3C8C582C8CAC583CA03
:100D1700F0A3C8C582C8CAC583CADFE9DEE780BEBB
:0113290000C3
:10095F00BB010689828A83E0225002E722BBFE0296
:09096F00E32289828A83E49322C9
:10097800BC000BBE0029EF8DF084FFADF022E4CC63
:10098800F875F008EF2FFFEE33FEEC33FCEE9DEC2C
:10099800984005FCEE9DFE0FD5F0E9E4CEFD22ED72
:1009A800F8F5F0EE8420D21CFEADF075F008EF2FBC
:1009B800FFED33FD4007985006D5F0F222C398FDAD
:0509C8000FD5F0EA224A
:1009CD00E88FF0A4CC8BF0A42CFCE98EF0A42CFCC9
:1009DD008AF0EDA42CFCEA8EF0A4CDA8F08BF0A447
:1009ED002DCC3825F0FDE98FF0A42CCD35F0FCEBA6
:1009FD008EF0A4FEA9F0EB8FF0A4CFC5F02ECD396B
:0F0A0D00FEE43CFCEAA42DCE35F0FDE43CFC22D7
:100A1C0075F008758200EF2FFFEE33FECD33CDCC91
:100A2C0033CCC58233C5829BED9AEC99E582984014
:100A3C000CF582EE9BFEED9AFDEC99FC0FD5F0D6F1
:100A4C00E4CEFBE4CDFAE4CCF9A88222B800C1B91B
:100A5C000059BA002DEC8BF084CFCECDFCE5F0CB59
:100A6C00F97818EF2FFFEE33FEED33FDEC33FCEB92
:100A7C0033FB10D703994004EB99FB0FD8E5E4F94D
:100A8C00FA227818EF2FFFEE33FEED33FDEC33FC3A
:100A9C00C933C910D7059BE99A4007EC9BFCE99A2E
:100AAC00F90FD8E0E4C9FAE4CCFB2275F010EF2F73
:100ABC00FFEE33FEED33FDCC33CCC833C810D70773
:100ACC009BEC9AE899400AED9BFDEC9AFCE899F8AE
:0E0ADC000FD5F0DAE4CDFBE4CCFAE4C8F92241
:0E0AEA00C3E49FFFE49EFEE49DFDE49CFC221D
:100AF800EB9FF5F0EA9E42F0E99D42F0E89C45F054
:010B080022CA
:100B0900E8600FECC313FCED13FDEE13FEEF13FFCA
:030B1900D8F122EE
:00000001FF
